{
  "_format": "hh-sol-artifact-1",
  "contractName": "MyFirstContract",
  "sourceName": "contracts/MyFirstContract.sol",
  "abi": [
    {
      "inputs": [
        {
          "internalType": "string",
          "name": "_name",
          "type": "string"
        },
        {
          "internalType": "uint256",
          "name": "_mobileNumber",
          "type": "uint256"
        }
      ],
      "name": "addMobileNumber",
      "outputs": [],
      "stateMutability": "nonpayable",
      "type": "function"
    },
    {
      "inputs": [
        {
          "internalType": "string",
          "name": "_name",
          "type": "string"
        }
      ],
      "name": "addName",
      "outputs": [],
      "stateMutability": "nonpayable",
      "type": "function"
    },
    {
      "inputs": [
        {
          "internalType": "string",
          "name": "_name",
          "type": "string"
        }
      ],
      "name": "getMobileNumber",
      "outputs": [
        {
          "internalType": "uint256",
          "name": "",
          "type": "uint256"
        }
      ],
      "stateMutability": "view",
      "type": "function"
    },
    {
      "inputs": [],
      "name": "getName",
      "outputs": [
        {
          "internalType": "string[]",
          "name": "",
          "type": "string[]"
        }
      ],
      "stateMutability": "view",
      "type": "function"
    },
    {
      "inputs": [
        {
          "internalType": "uint256",
          "name": "_index",
          "type": "uint256"
        }
      ],
      "name": "getName",
      "outputs": [
        {
          "internalType": "string",
          "name": "",
          "type": "string"
        }
      ],
      "stateMutability": "view",
      "type": "function"
    },
    {
      "inputs": [],
      "name": "getNamesLength",
      "outputs": [
        {
          "internalType": "uint256",
          "name": "",
          "type": "uint256"
        }
      ],
      "stateMutability": "view",
      "type": "function"
    },
    {
      "inputs": [],
      "name": "getNumber",
      "outputs": [
        {
          "internalType": "uint256",
          "name": "",
          "type": "uint256"
        }
      ],
      "stateMutability": "view",
      "type": "function"
    },
    {
      "inputs": [
        {
          "internalType": "string",
          "name": "",
          "type": "string"
        }
      ],
      "name": "phoneNumbers",
      "outputs": [
        {
          "internalType": "uint256",
          "name": "",
          "type": "uint256"
        }
      ],
      "stateMutability": "view",
      "type": "function"
    },
    {
      "inputs": [
        {
          "internalType": "uint256",
          "name": "_num",
          "type": "uint256"
        }
      ],
      "name": "setNumber",
      "outputs": [],
      "stateMutability": "nonpayable",
      "type": "function"
    }
  ],
  "bytecode": "0x608060405234801561001057600080fd5b50610a5b806100206000396000f3fe608060405234801561001057600080fd5b50600436106100935760003560e01c80633fb5c1cb116100665780633fb5c1cb146101205780636b8ff5741461013c5780637ba1eab31461016c57806385014c9e14610188578063f2c9ecd8146101b857610093565b806311456b471461009857806314b3ee68146100b457806317d7de7c146100e457806335f6690814610102575b600080fd5b6100b260048036038101906100ad9190610563565b6101d6565b005b6100ce60048036038101906100c99190610563565b610215565b6040516100db91906107cb565b60405180910390f35b6100ec61023d565b6040516100f99190610787565b60405180910390f35b61010a610316565b60405161011791906107cb565b60405180910390f35b61013a60048036038101906101359190610608565b610323565b005b61015660048036038101906101519190610608565b61032d565b60405161016391906107a9565b60405180910390f35b610186600480360381019061018191906105ac565b6103dd565b005b6101a2600480360381019061019d9190610563565b610404565b6040516101af91906107cb565b60405180910390f35b6101c0610432565b6040516101cd91906107cb565b60405180910390f35b60018190806001815401808255809150506001900390600052602060002001600090919091909150908051906020019061021192919061043b565b5050565b60006002826040516102279190610770565b9081526020016040518091039020549050919050565b60606001805480602002602001604051908101604052809291908181526020016000905b8282101561030d578382906000526020600020018054610280906108f9565b80601f01602080910402602001604051908101604052809291908181526020018280546102ac906108f9565b80156102f95780601f106102ce576101008083540402835291602001916102f9565b820191906000526020600020905b8154815290600101906020018083116102dc57829003601f168201915b505050505081526020019060010190610261565b50505050905090565b6000600180549050905090565b8060008190555050565b6060600182815481106103435761034261098b565b5b906000526020600020018054610358906108f9565b80601f0160208091040260200160405190810160405280929190818152602001828054610384906108f9565b80156103d15780601f106103a6576101008083540402835291602001916103d1565b820191906000526020600020905b8154815290600101906020018083116103b457829003601f168201915b50505050509050919050565b806002836040516103ee9190610770565b9081526020016040518091039020819055505050565b6002818051602081018201805184825260208301602085012081835280955050505050506000915090505481565b60008054905090565b828054610447906108f9565b90600052602060002090601f01602090048101928261046957600085556104b0565b82601f1061048257805160ff19168380011785556104b0565b828001600101855582156104b0579182015b828111156104af578251825591602001919060010190610494565b5b5090506104bd91906104c1565b5090565b5b808211156104da5760008160009055506001016104c2565b5090565b60006104f16104ec8461080b565b6107e6565b90508281526020810184848401111561050d5761050c6109ee565b5b6105188482856108b7565b509392505050565b600082601f830112610535576105346109e9565b5b81356105458482602086016104de565b91505092915050565b60008135905061055d81610a0e565b92915050565b600060208284031215610579576105786109f8565b5b600082013567ffffffffffffffff811115610597576105966109f3565b5b6105a384828501610520565b91505092915050565b600080604083850312156105c3576105c26109f8565b5b600083013567ffffffffffffffff8111156105e1576105e06109f3565b5b6105ed85828601610520565b92505060206105fe8582860161054e565b9150509250929050565b60006020828403121561061e5761061d6109f8565b5b600061062c8482850161054e565b91505092915050565b600061064183836106be565b905092915050565b60006106548261084c565b61065e818561086f565b9350836020820285016106708561083c565b8060005b858110156106ac578484038952815161068d8582610635565b945061069883610862565b925060208a01995050600181019050610674565b50829750879550505050505092915050565b60006106c982610857565b6106d38185610880565b93506106e38185602086016108c6565b6106ec816109fd565b840191505092915050565b600061070282610857565b61070c8185610891565b935061071c8185602086016108c6565b610725816109fd565b840191505092915050565b600061073b82610857565b61074581856108a2565b93506107558185602086016108c6565b80840191505092915050565b61076a816108ad565b82525050565b600061077c8284610730565b915081905092915050565b600060208201905081810360008301526107a18184610649565b905092915050565b600060208201905081810360008301526107c381846106f7565b905092915050565b60006020820190506107e06000830184610761565b92915050565b60006107f0610801565b90506107fc828261092b565b919050565b6000604051905090565b600067ffffffffffffffff821115610826576108256109ba565b5b61082f826109fd565b9050602081019050919050565b6000819050602082019050919050565b600081519050919050565b600081519050919050565b6000602082019050919050565b600082825260208201905092915050565b600082825260208201905092915050565b600082825260208201905092915050565b600081905092915050565b6000819050919050565b82818337600083830152505050565b60005b838110156108e45780820151818401526020810190506108c9565b838111156108f3576000848401525b50505050565b6000600282049050600182168061091157607f821691505b602082108114156109255761092461095c565b5b50919050565b610934826109fd565b810181811067ffffffffffffffff82111715610953576109526109ba565b5b80604052505050565b7f4e487b7100000000000000000000000000000000000000000000000000000000600052602260045260246000fd5b7f4e487b7100000000000000000000000000000000000000000000000000000000600052603260045260246000fd5b7f4e487b7100000000000000000000000000000000000000000000000000000000600052604160045260246000fd5b600080fd5b600080fd5b600080fd5b600080fd5b6000601f19601f8301169050919050565b610a17816108ad565b8114610a2257600080fd5b5056fea26469706673582212208af52af4cfb210708b4e4daf6cceec10fdd2014e1299da3cd322c04adeaca9c064736f6c63430008060033",
  "linkReferences": {},
  "deployedLinkReferences": {}
}